:03000000029AEB76
:0C9AEB00787FE4F6D8FD75818C029B3278
:101B290000000000000303000000000303000000A0
:101B39000000000000C0C000000000C0C00000009C
:101B49000000000000060600000000060600000074
:101B5900000000000080800000000080800000007C
:101B69000000000000010100000000010100000068
:101B7900003C4281818181818181818181423C0056
:101B89000002020E02020202020202020202020024
:101B9900003C428181010102041820408080FF003D
:101BA900003C42810101023C0201010181423C00E9
:101BB90000060A0A12122222424282FF020202008F
:101BC90000FF80808080BCC28101010181423C000C
:101BD900003C42818080BCC28181818181423C007C
:101BE90000FF010202040408080810101010100078
:101BF900003C42818181423C4281818181423C0099
:101C0900003C428181818181433D010181423C0047
:101C190000003E006300C180C180C180C180C180D5
:101C2900C180C180C180C180C18063003E000000C5
:101C39000000030003000F0003000300030003007A
:101C49000300030003000300030003000300000076
:101C590000003E006300C180C180018003000300D1
:101C690006001C0030006000C000C000FF800000BA
:101C790000003E006300C1800180018003003E0036
:101C89000300018001800180C18063003E000000E3
:101C9900000007000F000F001B001B00330033007A
:101CA90063006300C300FF8003000300030000001A
:101CB9000000FF80C000C000C000C000FE00E300BB
:101CC900C180018001800180C18063003E00000065
:101CD90000003E006300C180C000C000FE00E300B8
:101CE900C180C180C180C180C18063003E00000005
:101CF9000000FF80018003000300060006000C00BD
:101D09000C000C001800180018001800180000003A
:101D190000003E006300C180C180C18063003E00B5
:101D29006300C180C180C180C18063003E000000A2
:101D390000003E006300C180C180C180C180C180B4
:101D490063803F8001800180C18063003E00000004
:101D59000000001824424242424242422418000034
:101D6900000000103010101010101010101000009A
:101D79000000003C4242020404081020427E000098
:101D89000000003C424204180402024244380000A8
:101D9900000000040C14244444447E04040400009C
:101DA9000000007E4040405864020242443800006E
:101DB9000000001C2240405864424242241800009E
:101DC9000000007E440408081010101010100000D4
:101DD9000000003C4242422418244242423C000096
:101DE9000000001824424242261A02024438000028
:101DF900000060909066091010101010090600008C
:101E09000000000000181800000000181800000069
:101E19000040407E4888087E484848FF0808080076
:101E29000000007E42427E42427E42424A860000D3
:101E39000000007E424242427E424242427E00000F
:101E4900FE1010181410100040FC9010FE10101015
:101E5900E09090E080800000000000000000000099
:101E690000001C224141414141414141221C0000E5
:101E79000000040C04040404040404040404000021
:101E890000001C22414101020C102040407F00004B
:101E990000001C224101021C02010141221C000018
:101EA90000000C0C1414242444447F04040400008E
:101EB90000007F4040405C6241010101423C00005A
:101EC90000001C2241405C6241414141221C00004A
:101ED90000007F0102020404040808080808000041
:101EE90000001C224141221C22414141221C0000C8
:101EF90000001C2241414141231D0141221C0000D7
:101F090000000107010101010101010101010000B6
:101F19000000000000000000007E0000000000003A
:101F290000000000000000000000000000000000A8
:101F390007E0081010081008100810081008100809
:101F490010081008100810081008081007E0000011
:101F59000020002000E000200020002000200020B8
:101F69000020002000200020002000200020000088
:101F790007E00810100810080008000800100020E9
:101F890000C0010006000800100010081FF800003A
:101F990007E008101008000800080008001001E018
:101FA90000100008000800081008081007E00000E9
:101FB900006000A001200220022004200420082043
:101FC9000820102010201FF8002000200020000009
:101FD9001FF8100010001000100017E0181010086A
:101FE90000080008000800081008081007E00000B1
:101FF90007E00810100810001000100013E014107A
:1020090018081008100810081008081007E0000048
:102019001FF81008000800080010002000400040C8
:10202900008000800100010002000200020000009F
:1020390007E008101008100810081008081007E039
:1020490008101008100810081008081007E0000010
:1020590007E00810100810081008100810180828C0
:1020690007C80008000800081008081007E0000069
:102079000020002000E00020002000200020002097
:102089000020002000200020002000200020000067
:1020990007E00C30181818181818181818181818F4
:1020A900181818181818181818180C3007E0000014
:1020B900006000E001E00060006000600060006016
:1020C90000600060006000600060006001F80000CE
:1020D90007E00C30181818180018001800300060B4
:1020E90001C0030006001C00181818181FF800008A
:1020F90007E00C301818001800180030006003C001
:10210900006000300018001818180C3007E00000B3
:1021190000C001C001C003C003C006C006C00CC096
:102129000CC018C030C03FF800C000C003F0000068
:102139001FF818001800180018001FE01C301818A4
:102149000018001800180018181818300FE00000BF
:1021590007E00C30181818181800180018001FE0AC
:102169001C3018181818181818180C3007E0000037
:102179001FF81818181800300030006000C000C09F
:1021890001800180018003000300030003000000B7
:1021990007E00C3018181818181818180C3007E030
:1021A9000C3018181818181818180C3007E0000007
:1021B90007E00C3018181818181818180C3807F8F0
:1021C900001800180018181818180C3007E000003B
:1021D900000000001C222222222222221C000000D0
:1021E900000000000818080808080808080000008E
:1021F900000000001C222202040810203E000000FA
:10220900000000001C2202021C0202221C00000025
:10221900000000000C0C141424243E0404000000E7
:10222900000000003E20203C220202221C00000087
:10223900000000001C2220203C2222221C00000059
:10224900000000003E020404040808080800000019
:10225900000000001C2222221C2222221C00000055
:10226900000000001C2222221E0202221C00000083
:1022790000000000000C0C0000000C0C0000000025
:102289000E11111111110E00040C040404040400B0
:102299000E11010204081F000E11010601110E00A2
:1022A90002060A121F0202001F101E0101110E0070
:1022B9000608101E11110E001F010204080808006B
:1022C9000E11110E11110E000E11110F01020C0049
:1022D9000C0C12121E1212001C12121C12121C00DB
:1022E9000C12101010120C001C12121212121C00E7
:1022F9001E10101C10101E001E10101C10101000B3
:1023090026692929292926002050260908080906AD
:102319000000001E00000000000000000000000096
:10232900FF08082F282828FF0000007F0000000070
:10233900007E00000000FF00007E003C0000FF005E
:102349007F55555557617F007F10107E121212FF7D
:102359001808FF0034366382101010FF1010121E87
:102369000C2424242424428110107E14141425479B
:102379000808087F080808083E223E223E22264215
:102389004EA2BA92BA92BA82000000000000000080
:1023990000000000000000007E42427E42427E00B2
:1023A9004FF52555E5554B510808087F08080808D9
:1023B9002424FF2424243C24007E003C0000FF0048
:1023C90000007FF0BFE8DFD8E038E038E038E038D7
:1023D900E038E038E038E038E038E038E038C01874
:1023E9008008C018E038E038E038E038E038E038F4
:1023F900E038E038E038E038DFD8BFE87FF00000A7
:1024090000000000000800180038003800380038C3
:102419000038003800380038003800380038001813
:102429000008001800380038003800380038003833
:102439000038003800380038001800080000000093
:1024490000007FF03FE81FD8003800380038003816
:1024590000380038003800380038003800381FD8F4
:10246900BFE8DFC0E000E000E000E000E000E000DD
:10247900E000E000E000E000DFC0BFE07FF0000026
:1024890000007FF03FE81FD80038003800380038D6
:1024990000380038003800380038003800381FD8B4
:1024A9003FE81FD8003800380038003800380038B5
:1024B90000380038003800381FD83FE87FF00000A6
:1024C900000000008008C018E038E038E038E03843
:1024D900E038E038E038E038E038E038E038DFD894
:1024E900BFE81FD8003800380038003800380038F5
:1024F90000380038003800380018000800000000D3
:1025090000007FF0BFE0DFC0E000E000E000E00095
:10251900E000E000E000E000E000E000E000DFC0F3
:10252900BFE81FD8003800380038003800380038B4
:1025390000380038003800381FD83FE87FF0000025
:1025490000007FF0BFE0DFC0E000E000E000E00055
:10255900E000E000E000E000E000E000E000DFC0B3
:10256900BFE8DFD8E038E038E038E038E038E03874
:10257900E038E038E038E038DFD8BFE87FF0000025
:1025890000007FF03FE81FD80038003800380038D5
:102599000038003800380038003800380038001892
:1025A90000080018003800380038003800380038B2
:1025B9000038003800380038001800080000000012
:1025C90000007FF0BFE8DFD8E038E038E038E038D5
:1025D900E038E038E038E038E038E038E038DFD893
:1025E900BFE8DFD8E038E038E038E038E038E038F4
:1025F900E038E038E038E038DFD8BFE87FF00000A5
:1026090000007FF0BFE8DFD8E038E038E038E03894
:10261900E038E038E038E038E038E038E038DFD852
:10262900BFE81FD8003800380038003800380038B3
:1026390000380038003800381FD83FE87FF0000024
:1026490000007FFE0080008000800080108010FC68
:1026590010801080108010801080FFFE00000000A4
:1026690000000000000000000000000000047FFEE0
:102679000000000000000000000000000000000051
:10268900000000103FF800000000000000000000FA
:1026990000000000000000047FFE000000000000B0
:1026A900000000007FFC00000000000000003FF86F
:1026B900000000000000000000007FFE0000000094
:1026C90000007FFC448444844484448444844484D6
:1026D9004884487C5004600440047FFC40040000A6
:1026E90000007FF8020002000200020002203FF011
:1026F90004200420042004200424FFFE000000001C
:102709000400030001800100FFFE000000000480B6
:102719000640042008100818100C200C400800007E
:102729000000010001000100010001FE7F0001001D
:1027390001000100010001040104010400F8000086
:1027490000000040046006400440044004400820A2
:102759000820101010102008400E8004000000000E
:1027690002000200020002207FF002200220042061
:10277900042004200820082410242026403C0000BE
:10278900010001000100010001000100FFFE01003C
:102799000100010001000100010001000100000029
:1027A900040004000BF014206240018003800C60D7
:1027B900321EC10400C008800600018000E000400C
:1027C900009078904BFE4890789048904BFE4800D6
:1027D90079F84908490849F849084908A9F89108C0
:1027E90000001FFC108413E41084108417F41004F3
:1027F90013E41224122413E4222420044014800830
:10280900000007F004100410041007F0041004106D
:10281900041007F004100810081010102050402070
:1028290000001FF010101010101010101FF01010E1
:1028390010101010101010101FF0101000000000E0
:1028490008000FFC1080108020804FF888800880D5
:1028590008800880FFFE00800080008000800080E2
:1028690001007FFC00000FE008200FE000047FFE5C
:10287900400487C80440044008421042603E0000FA
:10288900010000803FFE222022202FFC222023E08D
:10289900200027F82210212020C04130460E98043C
:1028A900000000000FC00840084008400FC0084061
:1028B90008400FC008400840104021C00000000037
:1028C900000000001FE010201020102010201FE041
:1028D90010201020102010201FE010200000000000
:1028E90000000000080008000800080008007FFE3A
:1028F900080008000800080008000800000000009F
:10290900400021F03110211001100110E20E25F8CC
:10291900210821082090209028603090230E0C0473
:102929003FF8244824483FF801007FFC02001FF0CB
:1029390010101FF010101FF010101FF01010FFFEE4
:102949002200227C7F4422443E44227C3E4422448D
:102959002244FF7C0044248422844314810800001B
:10296900001000107C10441047FE44107C104510E4
:10297900449044907C10001000100010005000207A
:10298900200013FC1004400447E44424442447E491
:102999004424442447E440044004400440144008CB
:1029A9001FF010101FF010101FF00000FFFE220092
:1029B9003EFC22883E5023203E50E28E0304020052
:1029C900010001000100010009400D201910111832
:1029D900210C4106810401000100010005000200EB
:1029E900200033F8200821F84808FFFE104022484B
:1029F9004150F0E00150024E3444C0400140008093
:102A0900202018201020FE20042008301228342409
:102A1900582294221220102010201020102010205B
:102A290010401A48114C215027FE7404A00023F8C5
:102A3900200027FE20802190220827FC2208000080
:102A4900400027F0241007F09410541017F02000CC
:102A59002FFCC92449244924492449245FFE400004
:102A6900004047FC304023F8004007FEF00013F80F
:102A7900120813F8120813F816081A081228021077
:102A890010401020102013FEFE04104014401BFEBD
:102A99003088D110119010601058118E5604200002
:102AA9000078478021082490022003F8E440204060
:102AB90027FC20402248224823F850008FFE0000BE
:102AC900100010201010FDFE11041050148C190470
:102AD9003000D1FC102010201020102053FE2000BF
:102AE9000108108C0CC808907FFE40048FE8004054
:102AF90000807FFE0080008000800080028001004D
:102B090000003FFC000408040404030401140064E9
:102B19000184060438041004000400240014000889
:102B290000A0009000803FFE208020803E88228CFB
:102B39002248225022202A604492410A8606000235
:102B4900002000207F2008200BFC082408240844CA
:102B590009440E44F0844084010402780410000002
:102B690020202020277C392441FE7A24A77C21209B
:102B7900F97C252023FE21202AA03460281E00008C
:102B890008800C800840102010302018400E9FE467
:102B99000420042004200420082010A02040400024
:102BA9000C20F02010201128FDA4112232223A20F5
:102BB900542254229004100810101060118016003D
:102BC900400027F82090006007F80448E7F82448F7
:102BD900244827F824482468245050008FFE000018
:102BE900400027F8310821080108F10817E8110801
:102BF900110811081108110A150A190A110400000F
:102C0900109010903C9021FC40907C9093FE100015
:102C1900FDFC1104110411FC1104150419FC110423
:102C290043F822083208220803F80000E7FC204094
:102C3900204027FE204028A03110220C0406080459
:102C490000007FFE0420042004200420FFFE04204D
:102C59000420042008200820102020204020000003
:102C690008200430062004487FFC0100010001000F
:102C7900FFFE01000280044008201030201C40089B
:102C890000000000FFFE04000400040007F0041027
:102C990004100810081010101010201040A08040D7
:102CA900100010001FFC2080208040801FF8108039
:102CB90010801080FFFE008000800080008000806E
:102CC90000003FFE20002080208020802FFC2084EF
:102CD9002084210421042204220444044828901059
:102CE900102010203C20202041FCBD241124112457
:102CF900FD2411FC1124102014201820102000207C
:102D0900200013FC1204FA040A04120413FC38907C
:102D1900549094901090111211121212140E18005E
:102D29000900090011FC3204544899501148124411
:102D390014441140108002005104511290120FF0F6
:102D4900010001003FF801000100FFFE08200440D6
:102D59003FF801000100FFFE010001000100010030
:102D6900400023FE2000F9FC1104110421FC30006D
:102D79006BFEAA22222223FE2222222223FE2202E3
:102D8900100008FE7F102220147C7F4444544854CC
:102D9900525444544854515442284424884230825D
:102DA900080008001FE020204040BFF82108210842
:102DB90021083FF820002002200220021FFE000007
:102DC900202020202020FDFC4020504093FEFC4084
:102DD900108011FC1C04F0885050102010101010A5
:102DE9001080108010F81108FA1015FC112419240C
:102DF9003124D12417FE1050105010885104260296
:102E09000100020004001FF01010101010101FF034
:102E1900101010101FF01010101010101FF01010CB
:102E2900001000F83F00010001003FF80100010017
:102E39000100FFFE01000100010001000500020080
:102E4900004000407C40004001FC0044FE44204416
:102E59002044208448844484FD0445040228041045
:102E690000001000080008047EFE0424082412242F
:102E79003424582494241244104410841114120840
:102E89000000010001000100010001000100FFFE36
:102E99000100010001000100010001000100010021
:102EA900000008200820082008200820FFFE08202C
:102EB9000820082008200820082008200FE0082002
:102EC9000000000000007FFC00000000000000007E
:102ED9003FF8000000000000000000007FFE000035
:102EE90000001C224140404047414141231D000050
:102EF90000007C42414141427C404040404000004A
:102F090000001C224140300C02010141221C00003A
:102F19000000000000001E2140404040211E00002A
:102F29000000080808080808080808080808000038
:102F39000000000000001C2241414141221C000008
:102F49000000000000001E2140404040211E0000FA
:102F5900000040404042444850605048444200000C
:102F6900000000E7424244242428281810100000D9
:102F79000000000000000000000000000808000038
:102F890000007C424241414141414142427C0000B2
:102F990000004161615151494945454343410000A0
:102FA90000007F0808080808080808080808000041
:102FB90000001C224141404040404141221C000088
:102FC90000007F404040407E40404040407F00003C
:102FD9000808087F090909091111112121458200F1
:102FE9000000007C44444444444444447C4440003C
:102FF9000040202F082F28284BCA4A53522041004D
:10300900202824FE20E4262CA8A89092AA46820013
:1030190000000000000000000000000000000000A7
:103029000A09090808070706060505040403030237
:103039000201010000010102020203030404040564
:103049000506060607070808080909090A0A0A0BF6
:103059000B0B0C0C0D0D0D0E0E0E0F0F0F1010108B
:10306900111112121213131314141415151516161F
:103079001717171818181919191A1A1B1B1B1C1CB2
:103089001C1D1D1D1E1E1F1F1F2020202121222245
:1030990022232324242425252626262727282829D0
:1030A90029292A2A2B2B2C2C2D2D2E2E2F2F30304F
:1030B90031313232333334343535363737383839BC
:1030C9003A3A322E34000C96454D4AB80D4A4C0D09
:1030D900A54125AAB6056A497AADBD025D52092DF9
:1030E900475C95BA0A954E0B4A434B55370AD54A60
:1030F900955ABF04BA530A5B48652BBC052B500A85
:103109009345474AB906AA4C0AD54124DAB604B60A
:103119004A69573D0A4E510D26465E933A0D534D65
:1031290005AA4336B537096D4BB4AEBF04AD530A92
:103139004D486D25BC0D254F0D52445DAA380B5ADB
:103149004C056D4124ADB6049B4A7A4BBE0A4B51DE
:103159000AA5465B52BA06D24E0ADA42355B3709EE
:10316900374B8497C1049753064B4866A53C0EA577
:103179004F06B2444AB6380AAE4C092E423C97353E
:103189000C96497D4ABD0D4A510DA54555AABA056A
:103199006A4E0A6D43452EB7052D4B8A95BF0A9590
:1031A900530B4A476B553B0AD54F055A454A5D387B
:1031B9000A5B4C052B423A93B60693497729BD061B
:1031C900AA510AD54654DABA04B64E0A57434527D6
:1031D900380D264A8E933E0D52520DAA4766B53BCD
:1031E900056D4F04AE454A4EB90A4D4C0D15412D9A
:1031F90092B5001F3B5A7897B5D4F30111013001FC
:103209004E2030090107051500000A01010A0100D5
:103219000001010203030405050606070808090061
:0832290080C0E0F0F8FCFEFF9C
:10A46B000778244750524D4300C10E017500015D22
:10A47B0000016D00075E00000000000000410009B4
:0DA48B000041000A0041000B0041000C00E0
:10973900EFB4100040030297DC909749F82828738A
:1097490002977902977D029783029789029792027D
:10975900979602979C0297A20297AB0297AF02973E
:10976900B50297BB0297C40297C80297CE0297D455
:10977900C2808002D280C281800AC280D2818004E4
:10978900D280D281C282C28322C2808002D280C2A8
:1097990081800AC280D2818004D280D281D282C2E1
:1097A9008322C2808002D280C281800AC280D28193
:1097B9008004D280D281C282D28322C2808002D226
:1097C90080C281800AC280D2818004D280D281D2B3
:0497D90082D2832293
:0784DB00788BE6FC08E6FDCA
:1084E2007E1DEF14B40D0040030286309084FC75AB
:1084F200F003A4C58325F0C5837302852302853A60
:1085020002855102856802857F0285960285AD0249
:1085120085C00285D30285E60285F902860C0286B1
:108522001F74CF2DF58274303CF583E49320E3036E
:108532000286307E1E02863074CF2DF58274303C66
:10854200F583E49320E2030286307E1E02863074B5
:10855200CF2DF58274303CF583E49320E10302864B
:10856200307E1E02863074CF2DF58274303CF58346
:10857200E49320E0030286307E1E02863074D02D02
:10858200F58274303CF583E49320E7030286307E63
:108592001E02863074D02DF58274303CF583E4934C
:1085A20020E6030286307E1E02863074D02DF582CC
:1085B20074303CF583E49330E5747E1E807074D091
:1085C2002DF58274303CF583E49330E4617E1E80A5
:1085D2005D74D02DF58274303CF583E49330E34E24
:1085E2007E1E804A74D02DF58274303CF583E4936C
:1085F20030E23B7E1E803774D02DF58274303CF51C
:1086020083E49330E1287E1E802474D02DF5827499
:10861200303CF583E49330E0157E1E801174D12D39
:10862200F58274303CF583E49330E7027E1EAF0698
:018632002225
:109D14009000237404F07E0AEEC39F501FEE540398
:109D24009000237006E02402F08003E004F0900029
:109D340023E075F00784E5F0F00E80DC7E01EEC3CD
:109D44009D5042EE6404600EEE64066009EE640900
:109D54006004EEB40B09900023E02402F08018EEB6
:109D6400B4020DEF5403700F900023E004F0800759
:109D7400900023E02403F0900023E075F00784E5CD
:109D8400F0F00E80B9900023E02BF0E075F007842A
:039D9400E5F0F007
:019D970022A9
:1071A0007B0C900024E075F00AA4FF900026E02FED
:1071B0007882F690000DE075F00AA4FFA3E02F0896
:1071C000F6A3E075F00AA4FFA3E02F08F67882E6A4
:1071D00075F003A4788BA6F008F618E6FE08E624FE
:1071E000D1F58274303EF583E493FF5460C41354A8
:1071F00007FE7885F6EF541F08F6BE0104E61480FA
:10720000057886E6241E7987F77883E6FFC3940A1B
:107210005010EF9031FA93FF08E6FDEF2DFFE433B5
:10722000801A7883E625E024F0F582E43431F58392
:1072300008E6FF7401932FFFE4933400CF24FF7816
:107240008AF6EF34FF18F67883E6D39402400E18DE
:10725000E654037008788A06E6187001067887E617
:10726000FFFDC3788AE69D18E69400406008E69F1B
:10727000F618E69400F6788BE6FE08E624CFF58251
:1072800074303EF583E49354F0C4540F7888F6606C
:10729000027B0D787376017873E6FFD39B5025123D
:1072A00084DB7874EFF6C3788AE69F18E694004092
:1072B000137874E6FF788AE69FF618E69400F6786D
:1072C000730680D3788AE6047874F68076788C74B6
:1072D000FD26F61874FF36F67887E6C3788A96F6A8
:1072E000E41896F6788BE6FE08E624CFF582743033
:1072F0003EF583E49354F0C4540F7888F660027B23
:107300000DAF037873A6077873E6FFD39400402887
:107310001284DB7874EFF67889E6FC08E6FDC39FFB
:10732000EC940040137874E6FFED9F788AF6EC94B5
:107330000018F678731680CF788AE6FFC37874E673
:107340009F04F67888E6FF600DC37873E69FFFBF61
:107350000104D20A8002C20A7888E6FF60087873C6
:10736000E6D39F4001167873E6B40102E4F6787321
:10737000E6FF900022F008E6FE75F00A8490001DFA
:10738000F0EE75F00A84A3E5F0F0EFC3940B500D16
:10739000900021740EF0300A1114F0800D9000223C
:1073A000E024F6F0900021740AF090001EE0700CCA
:1073B000740AF090001DE0B40102E4F07882E6FF68
:1073C00008E6FD08E6FB129D14900023E0700374AC
:0273D0000FF0BC
:0173D2002298
:09A7C90000000000000000002265
:09A7D200D2B6D2B7C2B7C2B6225A
:09A7DB00C2B6C2B7D2B6D2B72251
:10A30700E4FEEFA806088002C333D8FC30E704D286
:10A31700B78002C2B7D2B612A7C9C2B60EEEB4084A
:10A32700E1D2B7D2B612A7C930B704C20C8002D2A5
:06A337000CC2B602A7C92A
:10A53400E4FFD2B7FEC2B612A7C9D2B612A7C9EFBA
:10A5440025E0FF30B7010F12A7C90EEEB408E6C22A
:01A55400B650
:01A5550022E3
:0EA7BB00A21692B7D2B612A7C9C2B602A7C99B
:10A3A500AC0712A7D27FD012A307200C037F00228F
:10A3B500AF0412A307200C037F0022AF0512A307E9
:10A3C500200C037F002212A7DB12A7C912A7C97FA1
:02A3D500012263
:10A5D20012A7D27FD112A307200C037F002212A55B
:09A5E20034D21612A7BB12A7DB4C
:01A5EB00224D
:10A43B00AC07ECC4540F90000FF0EC540FA3F07F5B
:01A44B00050B
:02A44C00AD075A
:10A44E0012A7D27FD012A307200C037F0022AF05E4
:0CA45E0012A307200C037F002212A5D2DD
:01A46A0022CF
:10A75800EFD394064005EF94004005AE0512A3A57B
:01A7680022CE
:10A1DC007FC812A7467F0D12A44CEF640160307D3E
:10A1EC00017F0D12A3A5E41DFF12A7587D597F0115
:10A1FC0012A7587D167F0212A7587D257F0412A73F
:10A20C00587D127F0512A7587D217F0612A7582270
:10969300E4FF12A44CAC07EFC4540F900025F0EF85
:1096A300540F900027F07F0112A44CAC07EFC45471
:1096B3000F90002AF0EF540FA3F07F0212A44CACDA
:1096C30007301331EFC4540F75F00AA4FEEF540FA3
:1096D3002EFCD3940C4008D20874F42CFC8002C2F4
:1096E30008EC75F00A8490002EF0EC75F00A84A360
:1096F300E5F0F08011C208AF04EFC4540F90002EC0
:10970300F0EF540FA3F07F0412A44C12A43BAC0758
:10971300ECC4540F90000DF0EC540FA3F07F06122D
:10972300A44CAC07ECC4540F900024F0EF540F90FA
:069733000026F00271A007
:10952E00E4FF12A44CAC07EFC4540F900025F0EFEB
:10953E00540F900027F0EC60030295E17F0112A416
:10954E004CAC07ECC4540F90002AF0EC540FA3F06F
:10955E00EC60030295E17F0212A44CAC073013318C
:10956E00ECC4540F75F00AA4FFEC540F2FFCD394E7
:10957E000C4008D20874F42CFC8002C208EC75F082
:10958E000A8490002EF0EC75F00A84A3E5F0F080CA
:10959E000DECC4540F90002EF0EC540FA3F0EC70B1
:1095AE00327F0412A44C12A43BAC07ECC4540F90AF
:1095BE00000DF0EC540FA3F07F0612A44CAC07EC98
:1095CE00C4540F900024F0EF540F900026F0127147
:0395DE00A0C2C167
:0195E1002267
:10A6FB00EF1FAA0670011E4A60087D141DED60F065
:02A70B0080FAD2
:01A70D002229
:10A57800C2977F467E0012A6FBD2977F067E001206
:10A58800A6FBA297E433FC7F127E0012A6FBAF0461
:01A5980022A0
:10A73400C2977F2D7E0012A6FBD2977F127E000265
:02A74400A6FB72
:10A55600E4FC7B08C297ECC313FCD2970000000012
:10A566003097034480FC7F047E0012A6FBDBE5AF38
:01A5760004E0
:01A5770022C1
:02A5B700A907F2
:10A5B9007B08C297E91392977F047E0012A6FBD20B
:08A5C90097E9A2E713F9DBEAB0
:01A5D1002267
:109E190012A7347FCC12A5B77F4412A5B712A73475
:109E29007FCC12A5B77FBE12A5B712A556A90712F6
:109E3900A556EFD3947F401BD210EFF404FFE9F449
:109E490004F9EFC454F0FFE9C4540F4F24F0785BD0
:109E5900F68019C210EFC454F0FFE9C4540F4F78CB
:109E69005BF6E9540F903218937876F6785BE6FF43
:109E790075F00A8490001FF0EF75F00A84A3E5F0ED
:019E8900F0E8
:019E8A0022B5
:07A4EB00E55325E0FD04FC30
:10A4F200E55325E0FE04FFEE90290993F533EF932F
:0DA50200F534EE90292993F535EF93F536E9
:01A50F002229
:10A5EC0012A4EBE4F537AF05EF90284993F538AF9B
:08A5FC0004EF93F539E4F53A90
:01A604002233
:109E8B00E55325E0FE04FFEE90284993FDF548EFDE
:109E9B0093FCF549E553901E8993F54CE553901EC1
:109EAB006993F54D900024E0C454F02469F582E4E5
:109EBB00341EF583E5822553F582E43583F583E47F
:109ECB0093F54E900026E0C454F02469F582E434F7
:109EDB001EF583E5822553F582E43583F583E49300
:0E9EEB00F54F8D518C52301105E4F54EF54FB8
:019EF9002246
:10A4990012A4EBED90280993F538EC93F539ED907A
:10A4A90028A993F53DEC93F53EAF05EF9028C993A4
:08A4B900F541AF04EF93F542F9
:01A4C1002278
:10987F00E55325E0FE04FFEE90280993F548EF939A
:10988F00F54990000DE0FF7004F543801CEFC454C0
:10989F00F02469F582E4341EF583E5822553F582C1
:1098AF00E43583F583E493F54B90000EE0C454F058
:1098BF002469F582E4341EF583E5822553F582E4AD
:1098CF003583F583E493F54C90000FE0C454F024F6
:1098DF0069F582E4341EF583E5822553F582E4357C
:1098EF0083F583E493F54F900010E0C454F024699E
:1098FF00F582E4341EF583E5822553F582E4358342
:0E990F00F583E493F550301105E4F54CF54B6B
:01991D002227
:10A4C20012A4EBED90282993F538EC93F539ED9031
:10A4D20028A993F53DEC93F53EAF05EF9028C9937B
:08A4E200F541AF04EF93F542D0
:01A4EA00224F
:10991E00E55325E0FE04FFEE90282993F548EF93DA
:10992E00F54990000DE0FF7004F543801CEFC45420
:10993E00F02469F582E4341EF583E5822553F58221
:10994E00E43583F583E493F54B90000EE0C454F0B8
:10995E002469F582E4341EF583E5822553F582E40D
:10996E003583F583E493F54C90000FE0C454F02456
:10997E0069F582E4341EF583E5822553F582E435DC
:10998E0083F583E493F54F900010E0C454F02469FE
:10999E00F582E4341EF583E5822553F582E43583A2
:0E99AE00F583E493F550301105E4F550F54FC4
:0199BC002288
:10A7690012A4EBED90296993F538AF04EF93F5390D
:01A7790022BD
:108E3A00E55325E0FE04FFEE90296993F548EF9388
:108E4A00F54990002EE0601BC454F02469F582E4D1
:108E5A00341EF583E5822553F582E43583F583E4F0
:108E6A0093F54B90002FE0C454F02469F582E43462
:108E7A001EF583E5822553F582E43583F583E49371
:108E8A00F54CE553901E0993F54D90002AE0C45421
:108E9A00F02469F582E4341EF583E5822553F582D0
:108EAA00E43583F583E493F54E90002BE0C454F047
:108EBA002469F582E4341EF583E5822553F582E4BC
:108ECA003583F583E493F54F854D50900025E0C432
:108EDA0054F02469F582E4341EF583E5822553F5BE
:108EEA0082E43583F583E493F551900027E0C45476
:108EFA00F02469F582E4341EF583E5822553F58270
:108F0A00E43583F583E493F552301105E4F54CF525
:0C8F1A004B300808E553901E4993424B71
:018F26002228
:10A77A0012A4EBED902B8993F538AF04EF93F539DA
:01A78A0022AC
:108F2700E55325E0FE04FFEE902B8993F548EF9378
:108F3700F54990002EE0601BC454F02469F582E4E3
:108F4700341EF583E5822553F582E43583F583E402
:108F570093F54B90002FE0C454F02469F582E43474
:108F67001EF583E5822553F582E43583F583E49383
:108F7700F54CE553901E0993F54D90002AE0C45433
:108F8700F02469F582E4341EF583E5822553F582E2
:108F9700E43583F583E493F54E90002BE0C454F059
:108FA7002469F582E4341EF583E5822553F582E4CE
:108FB7003583F583E493F54F854D50900025E0C444
:108FC70054F02469F582E4341EF583E5822553F5D0
:108FD70082E43583F583E493F551900027E0C45488
:108FE700F02469F582E4341EF583E5822553F58282
:108FF700E43583F583E493F552300808E553901E72
:0C9007004993424B301105E4F54FF54E43
:01901300223A
:10A78B0012A4EBED902BA993F538AF04EF93F539A9
:01A79B00229B
:10901400E55325E0FE04FFEE902BA993F548EF936A
:10902400F54990002EE0601BC454F02469F582E4F5
:10903400341EF583E5822553F582E43583F583E414
:1090440093F54B90002FE0C454F02469F582E43486
:109054001EF583E5822553F582E43583F583E49395
:10906400F54CE553901E0993F54D90002AE0C45445
:10907400F02469F582E4341EF583E5822553F582F4
:10908400E43583F583E493F54E90002BE0C454F06B
:109094002469F582E4341EF583E5822553F582E4E0
:1090A4003583F583E493F54F854D50900025E0C456
:1090B40054F02469F582E4341EF583E5822553F5E2
:1090C40082E43583F583E493F551900027E0C4549A
:1090D400F02469F582E4341EF583E5822553F58294
:1090E400E43583F583E493F552300808E553901E84
:0C90F4004993424B301105E4F552F55150
:01910000224C
:109C030012A4EBED90286993F537EC93F538AF0583
:109C1300EF90288993F539AF04EF93F53A7870E61E
:109C2300FF75F06484C454F02469F582E4341EF5AE
:109C330083E5822553F582E43583F583E493F53B8D
:109C4300EF75F06484E5F075F00A84C454F0246978
:109C5300F582E4341EF583E5822553F582E43583EA
:109C6300F583E493F53CE675F00A84E5F0C454F01B
:109C73002469F582E4341EF583E5822553F582E4F5
:089C83003583F583E493F53D00
:019C8B0022B6
:109A5A00E55325E0FE04FFEE90286993F547EF935E
:109A6A00F548EE90288993F549EF93F54A7871E61F
:109A7A00FD75F00A12A0E0FF3395E0FEEFC4F8543A
:109A8A000FC868FFEEC454F048FE74692FF582745B
:109A9A001E3EF583E5822553F582E43583F583E49A
:109AAA0093F550ED75F00A12A0E0AFF0EF3395E0B0
:109ABA00FEEFC4F8540FC868FFEEC454F048FE74B1
:109ACA00692FF582741E3EF583E5822553F582E4FB
:109ADA003583F583E493F551301105E4F551F550DA
:019AEA002259
:10A33D0012A4EBED9029A993F537EC93F538ED9038
:10A34D0029C993F539EC93F53AED90286993F53BCE
:10A35D00EC93F53CAF05EF90288993F53DAF04EFF5
:03A36D0093F53E27
:01A3700022CA
:109EFA00E55325E0FE04FFEE9029A993F547EF9379
:109F0A00F548EE9029C993F549EF93F54AEE902862
:109F1A006993F54BEF93F54CEE90288993F54DEF45
:109F2A0093F54E7872E6FF3395E0FEEFC4F8540FCE
:109F3A00C868FFEEC454F048FE74692FF582741E97
:109F4A003EF583E5822553F582E43583F583E49370
:089F5A00F551301103E4F5514B
:019F620022DC
:10A3710012A4EBED902D8993F537EC93F538ED9020
:10A381002DA993F539EC93F53AED902DC993F53B51
:10A39100EC93F53CAF05EF902DE993F53DAF04EF5C
:03A3A10093F53EF3
:01A3A4002296
:109FC600E55325E0FE04FFEE902D8993F547EF93C8
:109FD600F548EE902DA993F549EF93F54AEE902DAD
:109FE600C993F54BEF93F54CEE902DE993F54DEFB4
:109FF60093F54E7877E67006EE902E098004EE9083
:10A006002E2993F54FEF93F550EE902E4993F55187
:10A01600EF93F552301109E4F552F551F550F54F2D
:01A026002217
:10A25B00E55325E0FE04FFE553902F9993F533E585
:10A26B0053902FA993F534E553902FB993F535EE11
:10A27B00902A0993F537EF93F538EE902A2993F549
:0DA28B0039EF93F53AE553901DF993F53E38
:01A2980022A3
:1099BD0090001FE0C454F02469F582E4341EF58351
:1099CD00E5822553F582E43583F583E493FFC413D3
:1099DD005407F54BEF33333354F8FF900020E0C4B8
:1099ED0054F02469F582E4341EF583E5822553F5A0
:1099FD0082E43583F583E493FEC4131354034FF5CA
:109A0D004CEE25E025E0F54D3011417866E6FFC3BB
:109A1D00940A5018E553901F1993F551C3740A9F7A
:109A2D00C454F02469F582E4341E800F7866E6751F
:109A3D00F010A424C9F582E5F0341DF583E58225E7
:0D9A4D0053F582E43583F583E493F552224E
:10A5990012A4EBED902AA993F537EC93F538AF05A2
:0DA5A900EF902AC993F539AF04EF93F53A0E
:01A5B6002282
:10939700E55325E0FE04FFEE902AA993F547EF93E6
:1093A700F548EE902AC993F549EF93F54A30111322
:1093B700EE30B405902C498003902C6993F551EF5A
:1093C70093F552E553D394075003029463E553246E
:1093D700F8FE785EE6FFC4540F75F008A42489F5FB
:1093E70082E43422F583E5822EF582E43583F58322
:1093F700E493F54BEF540F75F008A42489F582E444
:109407003422F583E5822EF582E43583F583E493F0
:1094170025E025E0F54C7860E6FFC4540F75F008A9
:10942700A42489F582E43422F583E5822EF582E4CB
:109437003583F583E493F54DEF540F75F008A424B5
:1094470089F582E43422F583AF06E5822FF582E4BD
:0C9457003583F583E49325E025E0F54E15
:0194630022E6
:107E5100E55325E0900032F004A3F07875E624F3B1
:107E6100601E14602E14603D2403704B9000347426
:107E710002F0A3740EF0A3740CF0A37401F0803728
:107E8100900034740FF0A304F0A37413F0A37402F0
:107E9100F080249000347411F0A304F0A304F0A343
:107EA1007403F08012900034740EF0A37402F0A3F6
:107EB100740DF0A37404F0200D03027FD8900034F8
:107EC100E075F010A424E9F582E5F0342EF583E5A0
:107ED100822553F582E43583F583E493F5339000ED
:107EE10035E075F010A424E9F582E5F0342EF58330
:107EF100E5822553F582E43583F583E493F53490E7
:107F01000036E075F010A424E9F582E5F0342EF591
:107F110083E5822553F582E43583F583E493F535D2
:107F2100E553D39407500302805CE55324F8900095
:107F310032F07867E6FFC4540F75F008A42489F580
:107F410082E43422F583C083C082900032E0FED007
:107F510082D0832582F582E43583F583E493F53F6E
:107F6100EF540F75F008A42489F582E43422F583D7
:107F7100E5822EF582E43583F583E49325E025E05F
:107F8100F540900037E02467F8E6FFC4540F75F020
:107F910008A42489F582E43422F583C083C0829049
:107FA1000032E0D082D0832582F582E43583F583E7
:107FB100E493F541EF540F75F008A42489F582E4A8
:107FC1003422F583E5822EF582E43583F583E4934B
:107FD10025E025E0F54222900032E0FF902AE99366
:107FE100F533900033E0FE902AE993F534EF902BBE
:107FF1000993F535EE93F536900034E075F010A451
:1080010024E9F582E5F0342EF583E5822553F582E6
:10801100E43583F583E493F538900035E075F0108D
:10802100A424E9F582E5F0342EF583E5822553F5A4
:1080310082E43583F583E493F539900036E075F0F9
:1080410010A424E9F582E5F0342EF583E582255369
:0B805100F582E43583F583E493F53AF3
:01805C002201
:10836900E55325E0FE04FF7875E624F3601C1460EC
:108379002A146038240370449000327402F0A37404
:108389000EF0790CA37401F08032900032740FF072
:10839900A304F07913A37402F080219000327411C0
:1083A900F0A304F07913A37403F0801090003274E1
:1083B9000EF0A37402F0790DA37404F0900032E07A
:1083C90075F010A424E9200D03028458F582E5F024
:1083D900342EF583E5822553F582E43583F583E46C
:1083E90093F543900033E075F010A424E9F582E594
:1083F900F0342EF583E5822553F582E43583F58340
:10840900E493F54475F010E9A424E9F582E5F03424
:108419002EF583E5822553F582E43583F583E493CC
:10842900F545EE902AE993F547EF93F548EE902B41
:108439000993F549EF93F54AEE902B2993F54BEF04
:1084490093F54CEE902B4993F54DEF93F54E22F5AC
:1084590082E5F0342EF583E5822553F582E43583F0
:10846900F583E493F548900033E075F010A424E90E
:10847900F582E5F0342EF583E5822553F582E4355E
:1084890083F583E493F54975F010E9A424E9F582AD
:10849900E5F0342EF583E5822553F582E43583F53D
:1084A90083E493F54AEE902A6993F54BEF93F54CE3
:1084B900EE902A8993F54DEF93F54EEE902AA99304
:1084C900F54FEF93F550EE902AC993F551EF93F5D7
:0184D9005250
:0184DA00227F
:10A51000E4F5C275C78175C501F5C3FF8FC475C663
:10A520005A75C6A50074672FF8A6C20FEFB405ECE4
:03A53000E4F5C788
:01A533002205
:10A3D70075C78175C503E4F5C3F5C475C65A75C657
:10A3E700A50075C78175C502FF8FC474672FF8E68E
:10A3F700F5C275C65A75C6A5000FEFB405EBE4F5AF
:01A40700C78D
:01A408002231
:10A70E0075C65A75C6A500E4F5C7F5C5F5C6F5C3F9
:03A71E00F5C4225D
:10A60500AD07AC06E4F5C275C78175C501ECF5C3A8
:09A61500EDF5C412A70EAFC2223C
:10A67E00AB07AA0675C78175C502EAF5C3EBF5C42B
:07A68E00AF058FC202A70E09
:10A72100AD07AC0675C78175C503ECF5C3EDF5C47E
:03A7310002A70E6E
:10A027007F587E0212A7217DFD12A67E785CE6FD91
:10A037007F5912A67EA213E433FD7F5A12A67E78BB
:10A0470071E6FD7F5B12A67E08E6FD7F5C12A67EA9
:10A057007877E6FD7F5D12A67E7866E6FD7F5E1265
:10A06700A67EA2B4E433FD7F5F12A67E786DE6FD7F
:10A077007F6012A67E785CE6D3940B4002E4F6225A
:10A74600E4FEEEC39F500AE4FD0DEDB40AFB0E8055
:01A75600F111
:01A7570022DF
:04A7AC007F1E7E008E
:0BA7B000EF1FAC0670011E4C70F6227B
:107A2E009000327401F0A37490F090003274FFF560
:107A3E00F012A11445F07003027C3F75C134E4F5D9
:107A4E0053E553C3941050E275F002E553A4248914
:107A5E00F582E5F0342CF583E493F53375F002E509
:107A6E0053A4248AF582E5F0342CF583E493F5349F
:107A7E0075F002E553A424A9F582E5F0342CF583C4
:107A8E00E493F54575F002E553A424AAF582E5F0DA
:107A9E00342CF583E493F54675F002E553A424C91E
:107AAE00F582E5F0342CF583E493F52775F002E5C5
:107ABE0053A424CAF582E5F0342CF583E493F5281B
:107ACE0075F002E553A424E9F582E5F0342CF58334
:107ADE00E493F529F539F54975F002E553A424EA46
:107AEE00F582E5F0342CF583E493F52AF53AF54A60
:107AFE0075F002E553A42409F582E5F0342DF583E3
:107B0E00E493F52BF53B75F002E553A4240AF582B8
:107B1E00E5F0342DF583E493F52CF53C75F002E594
:107B2E0053A42429F582E5F0342DF583E493F53D35
:107B3E0075F002E553A4242AF582E5F0342DF58381
:107B4E00E493F53E75F002E553A42449F582E5F081
:107B5E00342DF583E493F53FF54F75F002E553A40C
:107B6E00244AF582E5F0342DF583E493F540F55083
:107B7E0075F002E553A42469F582E5F0342DF58302
:107B8E00E493F531F55175F002E553A4246AF582BC
:107B9E00E5F0342DF583E493F532F552E4FFE4FE7F
:107BAE0074432FF8C000E625E0D000F69286744BA1
:107BBE002FF8C000E625E0D000F692C474332FF8FB
:107BCE00C000E625E0D000F69285743B2FF8C00089
:107BDE00E625E0D000F6928474232FF8C000E62547
:107BEE00E0D000F69287742B2FF8C000E6FD25E05A
:107BFE00D000F692A7C2A600000000D2A60EEEB4E8
:107C0E00089E0FEF64087096AF53129739C2A40006
:107C1E00000000D2A4C2A57F0A12A74690002CA392
:107C2E00E0FFC374FF9FF58CD28CD2A50553027A68
:017C3E004FF6
:017C3F002222
:1073D300E5532408900032F0E55324F8FFE553C346
:1073E30094084003027518E553902299933333337D
:1073F30054F8FEE55390228993FD131313541F4E43
:10740300F533900024E075F008A42489F582E43470
:1074130022F583E5822553F582E43583F583E493EE
:10742300FEC313FCEDC43354E04CF534900026E066
:1074330075F008A42489F582E43422F583E58225D6
:1074430053F582E43583F583E49325E0FDEEC433FD
:10745300333354804DF53590000DE075F008A424C6
:1074630089F582E43422F583E5822553F582E435F8
:1074730083F583E493F53690000EE075F008A424B9
:1074830089F582E43422F583E5822553F582E435D8
:1074930083F583E49325E025E0F53790000FE0754D
:1074A300F008A42489F582E43422F583E582255388
:1074B300F582E43583F583E49325E0F538900010F5
:1074C300E075F008A42489F582E43422F583E5828B
:1074D3002553F582E43583F583E49333333354F84A
:1074E300F539900023E075F008A42429F582E434EB
:1074F30023F583E5822553F582E43583F583E4930D
:10750300F53AE553640360030275F94346C0434704
:107513000143488022900021E075F008A42429F556
:1075230082E43423F583E5822FF582E43583F58302
:10753300E493F53B900022E075F008A42429F5823A
:10754300E43423F583E5822FF582E43583F583E480
:1075530093F53CEF90238193F53D90001DE075F08A
:1075630008A424A9F582E43423F583E5822FF58268
:10757300E43583F583E493F53E90001EE075F0084F
:10758300A42429F582E43423F583E5822FF582E4EC
:107593003583F583E493FEC313F53FEEC4333333EE
:1075A3005480FE90001FE075F008A42488F582E45F
:1075B3003422F583E5822FF582E43583F583E49362
:1075C300FD1313543F4EF540EDC4333354C0FE90C6
:1075D3000020E075F008A42488F582E43422F583C2
:1075E300E5822FF582E43583F583E4934EF541EF8D
:0675F30090231193F54204
:0175F900226F
:109D9800E5532408900032F0E55324F8FFE553C357
:109DA80094085021900023E075F008A42429F58236
:109DB800E43423F583E5822553F582E43583F5837E
:109DC800E493F54A2290001FE075F008A42488F572
:109DD80082E43422F583E5822FF582E43583F58326
:109DE800E493FE1313543FF550EEC4333354C0FECE
:109DF800900020E075F008A42488F582E43422F568
:109E080083E5822FF582E43583F583E4934EF5519B
:019E18002227
:10A21C00E5532408F554E55324F8F555E553C39458
:10A22C00085016300B020022E554901B2993423D36
:10A23C00E554901B3993424122300B020022E55524
:0EA24C00901B29934235E555901B39934239FA
:01A25A0022E1
:10002E00786DE6B407004003021B28900040F828C4
:10003E0028730200550204120207CF020B8C020F26
:10004E0069021348021727E553C3940840030202BE
:10005E0032E5532408FC25E0FFE55325E02411FE8C
:10006E00AD0490002EE0FC7027F54BA3E075F02058
:10007E00A42419F582E5F0341CF583E5822FF58270
:10008E00E43583F583E493131313541FF54C805F0B
:10009E0075F020ECA42419F582E5F0341CF583E507
:1000AE00822FF582E43583F583E493F54B90002F90
:1000BE00E075F020A42419F582E5F0341CF583E5F3
:1000CE00822FF582E43583F583E493131313541FC3
:1000DE00FB75F020ECA42419F582E5F0341CF583B1
:1000EE00E5822EF582E43583F583E4934BF54C904F
:1000FE00002FE0FC75F020A42419F582E5F0341CE5
:10010E00F583E5822FF582E43583F583E493C433DA
:10011E0054E0FB75F020ECA42419F582E5F0341CB4
:10012E00F583E5822EF582E43583F583E49313138C
:10013E0013541F4BF54D90002AE0FC75F020A424BB
:10014E0019F582E5F0341CF583E5822FF582E4354E
:10015E0083F583E493FB1313543FF54EEBC4333313
:10016E0054C0FB75F020ECA42419F582E5F0341C84
:10017E00F583E5822EF582E43583F583E49313133C
:10018E00543F4BFC90002BE0F975F020A42419F598
:10019E0082E5F0341CF583E5822FF582E43583F594
:1001AE0083E493FBC41354074CF54FEB33333354B2
:1001BE00F8FC75F020E9A42419F582E5F0341CF55D
:1001CE0083E5822EF582E43583F583E493C41354DC
:1001DE00074CF550900025E075F010A42459F582D7
:1001EE00E5F0341DF583E5822DF582E43583F58344
:1001FE00E493FC1313543FF551ECC4333354C0FC59
:10020E00900027E075F010A42459F582E5F0341D16
:10021E00F583E5822DF582E43583F583E493C313EC
:10022E004CF55222E55324F8FC25E0FFE55325E07A
:10023E0024F1FEAD0490002EE0FC7027F543A3E000
:10024E0075F020A42419F582E5F0341CF583E582BF
:10025E002FF582E43583F583E493131313541FF5BE
:10026E0044805F75F020ECA42419F582E5F0341C6F
:10027E00F583E5822FF582E43583F583E493F54328
:10028E0090002FE075F020A42419F582E5F0341CBF
:10029E00F583E5822FF582E43583F583E49313131A
:1002AE0013541FFB75F020ECA42419F582E5F034ED
:1002BE001CF583E5822EF582E43583F583E4934BBA
:1002CE00F54490002FE0FC75F020A42419F582E58A
:1002DE00F0341CF583E5822FF582E43583F583E453
:1002EE0093C43354E0FB75F020ECA42419F582E599
:1002FE00F0341CF583E5822EF582E43583F583E434
:10030E0093131313541F4BF54590002AE0FC75F020
:10031E0020A42419F582E5F0341CF583E5822FF52F
:10032E0082E43583F583E493FB1313543FF546EBD8
:10033E00C4333354C0FB75F020ECA42419F582E5C8
:10034E00F0341CF583E5822EF582E43583F583E4E3
:10035E00931313543F4BFC90002BE0F975F020A43F
:10036E002419F582E5F0341CF583E5822FF582E43D
:10037E003583F583E493FBC41354074CF547EB33F5
:10038E00333354F8FC75F020E9A42419F582E5F016
:10039E00341CF583E5822EF582E43583F583E493F0
:1003AE00C41354074CF548900025E075F010A424B2
:1003BE0059F582E5F0341DF583E5822DF582E4359D
:1003CE0083F583E493FC1313543FF549ECC43333A4
:1003DE0054C0FC900027E075F010A42459F582E576
:1003EE00F0341DF583E5822DF582E43583F583E443
:1003FE0093C3134CF54A200803021B28ED901E49A7
:10040E0093424322E553C3940840030205EFE5539C
:10041E002408FC25E0FFE55325E02411FEAD0490F1
:10042E00002EE0FC7027F53BA3E075F020A4241904
:10043E00F582E5F0341CF583E5822FF582E43583F1
:10044E00F583E493131313541FF53C805F75F0206E
:10045E00ECA42419F582E5F0341CF583E5822FF522
:10046E0082E43583F583E493F53B90002FE075F03D
:10047E0020A42419F582E5F0341CF583E5822FF5CE
:10048E0082E43583F583E493131313541FFB75F045
:10049E0020ECA42419F582E5F0341CF583E5822EB8
:1004AE00F582E43583F583E4934BF53C90002FE021
:1004BE00FC75F020A42419F582E5F0341CF583E5D3
:1004CE00822FF582E43583F583E493C43354E0FB45
:1004DE0075F020ECA42419F582E5F0341CF583E5C3
:1004EE00822EF582E43583F583E493131313541FA0
:1004FE004BF53D90002AE0FC75F020A42419F582FE
:10050E00E5F0341CF583E5822FF582E43583F5831F
:10051E00E493FB1313543FF53EEBC4333354C0FB4B
:10052E0075F020ECA42419F582E5F0341CF583E572
:10053E00822EF582E43583F583E4931313543F4BF7
:10054E00FC90002BE0F975F020A42419F582E5F05B
:10055E00341CF583E5822FF582E43583F583E4932D
:10056E00FBC41354074CF53FEB33333354F8FC758F
:10057E00F020E9A42419F582E5F0341CF583E58218
:10058E002EF582E43583F583E493C41354074CF5BA
:10059E0040900025E075F010A42459F582E5F03462
:1005AE001DF583E5822DF582E43583F583E493FC16
:1005BE001313543FF541ECC4333354C0FC90002761
:1005CE00E075F010A42459F582E5F0341DF583E5AD
:1005DE00822DF582E43583F583E493C3134CF54203
:1005EE0022E55324F8FC25E0FFE55325E024F1FE37
:1005FE00AD0490002EE0FC7027F533A3E075F020DB
:10060E00A42419F582E5F0341CF583E5822FF582DA
:10061E00E43583F583E493131313541FF534805F8D
:10062E0075F020ECA42419F582E5F0341CF583E571
:10063E00822FF582E43583F583E493F53390002F12
:10064E00E075F020A42419F582E5F0341CF583E55D
:10065E00822FF582E43583F583E493131313541F2D
:10066E00FB75F020ECA42419F582E5F0341CF5831B
:10067E00E5822EF582E43583F583E4934BF53490D1
:10068E00002FE0FC75F020A42419F582E5F0341C4F
:10069E00F583E5822FF582E43583F583E493C43345
:1006AE0054E0FB75F020ECA42419F582E5F0341C1F
:1006BE00F583E5822EF582E43583F583E4931313F7
:1006CE0013541F4BF53590002AE0FC75F020A4243E
:1006DE0019F582E5F0341CF583E5822FF582E435B9
:1006EE0083F583E493FB1313543FF536EBC4333396
:1006FE0054C0FB75F020ECA42419F582E5F0341CEF
:10070E00F583E5822EF582E43583F583E4931313A6
:10071E00543F4BFC90002BE0F975F020A42419F502
:10072E0082E5F0341CF583E5822FF582E43583F5FE
:10073E0083E493FBC41354074CF537EB3333335434
:10074E00F8FC75F020E9A42419F582E5F0341CF5C7
:10075E0083E5822EF582E43583F583E493C4135446
:10076E00074CF538900025E075F010A42459F58259
:10077E00E5F0341DF583E5822DF582E43583F583AE
:10078E00E493FC1313543FF539ECC4333354C0FCDB
:10079E00900027E075F010A42459F582E5F0341D81
:1007AE00F583E5822DF582E43583F583E493C31357
:1007BE004CF53A200803021B28ED901E4993423354
:1007CE0022E553C3940840030209ACE5532408FC08
:1007DE0025E0FFE55325E02411FEAD0490002EE048
:1007EE00FC7027F52BA3E075F020A42419F582E503
:1007FE00F0341CF583E5822FF582E43583F583E42E
:10080E0093131313541FF52C805F75F020ECA42462
:10081E0019F582E5F0341CF583E5822FF582E43577
:10082E0083F583E493F52B90002FE075F020A4243C
:10083E0019F582E5F0341CF583E5822FF582E43557
:10084E0083F583E493131313541FFB75F020ECA46C
:10085E002419F582E5F0341CF583E5822EF582E449
:10086E003583F583E4934BF52C90002FE0FC75F067
:10087E0020A42419F582E5F0341CF583E5822FF5CA
:10088E0082E43583F583E493C43354E0FB75F020A2
:10089E00ECA42419F582E5F0341CF583E5822EF5DF
:1008AE0082E43583F583E493131313541F4BF52D14
:1008BE0090002AE0FC75F020A42419F582E5F034AE
:1008CE001CF583E5822FF582E43583F583E493FBF3
:1008DE001313543FF52EEBC4333354C0FB75F02085
:1008EE00ECA42419F582E5F0341CF583E5822EF58F
:1008FE0082E43583F583E4931313543F4BFC90004D
:10090E002BE0F975F020A42419F582E5F0341CF5DE
:10091E0083E5822FF582E43583F583E493FBC413DC
:10092E0054074CF52FEB33333354F8FC75F020E9B4
:10093E00A42419F582E5F0341CF583E5822EF582A8
:10094E00E43583F583E493C41354074CF5309000DB
:10095E0025E075F010A42459F582E5F0341DF583D9
:10096E00E5822DF582E43583F583E493FC1313546D
:10097E003FF531ECC4333354C0FC900027E075F0E2
:10098E0010A42459F582E5F0341DF583E5822DF58A
:10099E0082E43583F583E493C3134CF53222E55399
:1009AE0024F8FC25E0FFE55325E024F1FEAD04908C
:1009BE00002EE0FC7027F523A3E075F020A4241987
:1009CE00F582E5F0341CF583E5822FF582E435835C
:1009DE00F583E493131313541FF524805F75F020F1
:1009EE00ECA42419F582E5F0341CF583E5822FF58D
:1009FE0082E43583F583E493F52390002FE075F0C0
:100A0E0020A42419F582E5F0341CF583E5822FF538
:100A1E0082E43583F583E493131313541FFB75F0AF
:100A2E0020ECA42419F582E5F0341CF583E5822E22
:100A3E00F582E43583F583E4934BF52490002FE0A3
:100A4E00FC75F020A42419F582E5F0341CF583E53D
:100A5E00822FF582E43583F583E493C43354E0FBAF
:100A6E0075F020ECA42419F582E5F0341CF583E52D
:100A7E00822EF582E43583F583E493131313541F0A
:100A8E004BF52590002AE0FC75F020A42419F58280
:100A9E00E5F0341CF583E5822FF582E43583F5838A
:100AAE00E493FB1313543FF526EBC4333354C0FBCE
:100ABE0075F020ECA42419F582E5F0341CF583E5DD
:100ACE00822EF582E43583F583E4931313543F4B62
:100ADE00FC90002BE0F975F020A42419F582E5F0C6
:100AEE00341CF583E5822FF582E43583F583E49398
:100AFE00FBC41354074CF527EB33333354F8FC7512
:100B0E00F020E9A42419F582E5F0341CF583E58282
:100B1E002EF582E43583F583E493C41354074CF524
:100B2E0028900025E075F010A42459F582E5F034E4
:100B3E001DF583E5822DF582E43583F583E493FC80
:100B4E001313543FF529ECC4333354C0FC900027E3
:100B5E00E075F010A42459F582E5F0341DF583E517
:100B6E00822DF582E43583F583E493C3134CF52A85
:100B7E00200803021B28ED901E4993422322E553C1
:100B8E00C394084003020D77E5532408FC25E0FFCB
:100B9E00E55325E02411FEAD0490002EE0FC7027F5
:100BAE00F53BF54BA3E075F020A42419F582E5F092
:100BBE00341CF583E5822FF582E43583F583E493C7
:100BCE00131313541F805F75F020ECA42419F582C3
:100BDE00E5F0341CF583E5822FF582E43583F58349
:100BEE00E493F53BF54B90002FE075F020A424190B
:100BFE00F582E5F0341CF583E5822FF582E435832A
:100C0E00F583E493131313541FFB75F020ECA42407
:100C1E0019F582E5F0341CF583E5822EF582E43574
:100C2E0083F583E4934BF53CF54C90002FE0FC7577
:100C3E00F020A42419F582E5F0341CF583E5822F0B
:100C4E00F582E43583F583E493C43354E0FB75F009
:100C5E0020ECA42419F582E5F0341CF583E5822EF0
:100C6E00F582E43583F583E493131313541F4BF588
:100C7E003DF54D90002AE0FC75F020A42419F58274
:100C8E00E5F0341CF583E5822FF582E43583F58398
:100C9E00E493FB1313543FF53EF54EEBC43333543C
:100CAE00C0FB75F020ECA42419F582E5F0341CF598
:100CBE0083E5822EF582E43583F583E49313135492
:100CCE003F4BFC90002BE0F975F020A42419F5821F
:100CDE00E5F0341CF583E5822FF582E43583F58348
:100CEE00E493FBC41354074CF53FF54FEB3333330A
:100CFE0054F8FC75F020E9A42419F582E5F0341CB3
:100D0E00F583E5822EF582E43583F583E493C413EF
:100D1E0054074CF540F550900025E075F010A424D2
:100D2E0059F582E5F0341DF583E5822DF582E43523
:100D3E0083F583E493FC1313543FF541F551ECC452
:100D4E00333354C0FC900027E075F010A42459F5FD
:100D5E0082E5F0341DF583E5822DF582E43583F5C9
:100D6E0083E493C3134C021921E55324F8FC25E0C8
:100D7E00FFE55325E024F1FEAD0490002EE0FC705B
:100D8E0027F533F543A3E075F020A42419F582E589
:100D9E00F0341CF583E5822FF582E43583F583E488
:100DAE0093131313541F805F75F020ECA42419F5D0
:100DBE0082E5F0341CF583E5822FF582E43583F568
:100DCE0083E493F533F54390002FE075F020A424CF
:100DDE0019F582E5F0341CF583E5822FF582E435B2
:100DEE0083F583E493131313541FFB75F020ECA4C7
:100DFE002419F582E5F0341CF583E5822EF582E4A4
:100E0E003583F583E4934BF534F54490002FE0FCE5
:100E1E0075F020A42419F582E5F0341CF583E582E3
:100E2E002FF582E43583F583E493C43354E0FB75E8
:100E3E00F020ECA42419F582E5F0341CF583E5824C
:100E4E002EF582E43583F583E493131313541F4B6D
:100E5E00F535F54590002AE0FC75F020A42419F52F
:100E6E0082E5F0341CF583E5822FF582E43583F5B7
:100E7E0083E493FB1313543FF536F546EBC433333B
:100E8E0054C0FB75F020ECA42419F582E5F0341C57
:100E9E00F583E5822EF582E43583F583E49313130F
:100EAE00543F4BFC90002BE0F975F020A42419F56B
:100EBE0082E5F0341CF583E5822FF582E43583F567
:100ECE0083E493FBC41354074CF537F547EB3333E8
:100EDE003354F8FC75F020E9A42419F582E5F034BA
:100EEE001CF583E5822EF582E43583F583E493C405
:100EFE001354074CF538F548900025E075F010A412
:100F0E002459F582E5F0341DF583E5822DF582E452
:100F1E003583F583E493FC1313543FF539F549EC0F
:100F2E00C4333354C0FC900027E075F010A424594C
:100F3E00F582E5F0341DF583E5822DF582E43583E7
:100F4E00F583E493C3134CF53AF54A200803021BCC
:100F5E0028ED901E49934243423322E553C3940831
:100F6E004003021156E5532408FC25E0FFE5532506
:100F7E00E02411FEAD0490002EE0FC7027F52BF559
:100F8E004BA3E075F020A42419F582E5F0341CF58E
:100F9E0083E5822FF582E43583F583E493131313EF
:100FAE00541F805F75F020ECA42419F582E5F0340F
:100FBE001CF583E5822FF582E43583F583E493F502
:100FCE002BF54B90002FE075F020A42419F582E547
:100FDE00F0341CF583E5822FF582E43583F583E446
:100FEE0093131313541FFB75F020ECA42419F582F0
:100FFE00E5F0341CF583E5822EF582E43583F58326
:10100E00E4934BF52CF54C90002FE0FC75F020A4EA
:10101E002419F582E5F0341CF583E5822FF582E480
:10102E003583F583E493C43354E0FB75F020ECA4D0
:10103E002419F582E5F0341CF583E5822EF582E461
:10104E003583F583E493131313541F4BF52DF54D90
:10105E0090002AE0FC75F020A42419F582E5F03406
:10106E001CF583E5822FF582E43583F583E493FB4B
:10107E001313543FF52EF54EEBC4333354C0FB75AA
:10108E00F020ECA42419F582E5F0341CF583E582FA
:10109E002EF582E43583F583E4931313543F4BFC12
:1010AE0090002BE0F975F020A42419F582E5F034B8
:1010BE001CF583E5822FF582E43583F583E493FBFB
:1010CE00C41354074CF52FF54FEB33333354F8FC60
:1010DE0075F020E9A42419F582E5F0341CF583E5BA
:1010EE00822EF582E43583F583E493C41354074CC2
:1010FE00F530F550900025E075F010A42459F582D6
:10110E00E5F0341DF583E5822DF582E43583F58314
:10111E00E493FC1313543FF531F551ECC4333354BF
:10112E00C0FC900027E075F010A42459F582E5F07C
:10113E00341DF583E5822DF582E43583F583E49342
:10114E00C3134CF532F55222E55324F8FC25E0FF8B
:10115E00E55325E024F1FEAD0490002EE0FC70274F
:10116E00F523F543A3E075F020A42419F582E5F0EC
:10117E00341CF583E5822FF582E43583F583E49301
:10118E00131313541F805F75F020ECA42419F582FD
:10119E00E5F0341CF583E5822FF582E43583F58383
:1011AE00E493F523F54390002FE075F020A4241965
:1011BE00F582E5F0341CF583E5822FF582E4358364
:1011CE00F583E493131313541FFB75F020ECA42442
:1011DE0019F582E5F0341CF583E5822EF582E435AF
:1011EE0083F583E4934BF524F54490002FE0FC75D2
:1011FE00F020A42419F582E5F0341CF583E5822F46
:10120E00F582E43583F583E493C43354E0FB75F043
:10121E0020ECA42419F582E5F0341CF583E5822E2A
:10122E00F582E43583F583E493131313541F4BF5C2
:10123E0025F54590002AE0FC75F020A42419F582CE
:10124E00E5F0341CF583E5822FF582E43583F583D2
:10125E00E493FB1313543FF526F546EBC433335496
:10126E00C0FB75F020ECA42419F582E5F0341CF5D2
:10127E0083E5822EF582E43583F583E493131354CC
:10128E003F4BFC90002BE0F975F020A42419F58259
:10129E00E5F0341CF583E5822FF582E43583F58382
:1012AE00E493FBC41354074CF527F547EB33333364
:1012BE0054F8FC75F020E9A42419F582E5F0341CED
:1012CE00F583E5822EF582E43583F583E493C4132A
:1012DE0054074CF528F548900025E075F010A4242D
:1012EE0059F582E5F0341DF583E5822DF582E4355E
:1012FE0083F583E493FC1313543FF529F549ECC4AD
:10130E00333354C0FC900027E075F010A42459F537
:10131E0082E5F0341DF583E5822DF582E43583F503
:10132E0083E493C3134CF52AF54A200803021B28C5
:10133E00ED901E49934243422322E553C394084045
:10134E0003021535E5532408FC25E0FFE55325E09F
:10135E002411FEAD0490002EE0FC7027F53BF52B1A
:10136E00A3E075F020A42419F582E5F0341CF58372
:10137E00E5822FF582E43583F583E493131313543A
:10138E001F805F75F020ECA42419F582E5F0341C63
:10139E00F583E5822FF582E43583F583E493F53BFF
:1013AE00F52B90002FE075F020A42419F582E5F0BE
:1013BE00341CF583E5822FF582E43583F583E493BF
:1013CE00131313541FFB75F020ECA42419F582E5BA
:1013DE00F0341CF583E5822EF582E43583F583E443
:1013EE00934BF53CF52C90002FE0FC75F020A424D7
:1013FE0019F582E5F0341CF583E5822FF582E4358C
:10140E0083F583E493C43354E0FB75F020ECA424FD
:10141E0019F582E5F0341CF583E5822EF582E4356C
:10142E0083F583E493131313541F4BF53DF52D9061
:10143E00002AE0FC75F020A42419F582E5F0341C96
:10144E00F583E5822FF582E43583F583E493FB1370
:10145E0013543FF53EF52EEBC4333354C0FB75F0F9
:10146E0020ECA42419F582E5F0341CF583E5822ED8
:10147E00F582E43583F583E4931313543F4BFC90CC
:10148E00002BE0F975F020A42419F582E5F0341C48
:10149E00F583E5822FF582E43583F583E493FBC46F
:1014AE001354074CF53FF52FEB33333354F8FC75DB
:1014BE00F020E9A42419F582E5F0341CF583E582C9
:1014CE002EF582E43583F583E493C41354074CF56B
:1014DE0040F530900025E075F010A42459F582E512
:1014EE00F0341DF583E5822DF582E43583F583E432
:1014FE0093FC1313543FF541F531ECC4333354C010
:10150E00FC900027E075F010A42459F582E5F03424
:10151E001DF583E5822DF582E43583F583E493C3CF
:10152E00134CF542F53222E55324F8FC25E0FFE595
:10153E005325E024F1FEAD0490002EE0FC7027F55B
:10154E0033F523A3E075F020A42419F582E5F034D9
:10155E001CF583E5822FF582E43583F583E493133E
:10156E001313541F805F75F020ECA42419F582E547
:10157E00F0341CF583E5822FF582E43583F583E4A0
:10158E0093F533F52390002FE075F020A42419F580
:10159E0082E5F0341CF583E5822FF582E43583F580
:1015AE0083E493131313541FFB75F020ECA424193A
:1015BE00F582E5F0341CF583E5822EF582E4358361
:1015CE00F583E4934BF534F52490002FE0FC75F091
:1015DE0020A42419F582E5F0341CF583E5822FF55D
:1015EE0082E43583F583E493C43354E0FB75F02035
:1015FE00ECA42419F582E5F0341CF583E5822EF572
:10160E0082E43583F583E493131313541F4BF5359E
:10161E00F52590002AE0FC75F020A42419F582E54A
:10162E00F0341CF583E5822FF582E43583F583E4EF
:10163E0093FB1313543FF536F526EBC4333354C0E6
:10164E00FB75F020ECA42419F582E5F0341CF5832B
:10165E00E5822EF582E43583F583E4931313543F2C
:10166E004BFC90002BE0F975F020A42419F582E5CF
:10167E00F0341CF583E5822FF582E43583F583E49F
:10168E0093FBC41354074CF537F527EB3333335420
:10169E00F8FC75F020E9A42419F582E5F0341CF568
:1016AE0083E5822EF582E43583F583E493C41354E7
:1016BE00074CF538F528900025E075F010A4245954
:1016CE00F582E5F0341DF583E5822DF582E4358350
:1016DE00F583E493FC1313543FF539F529ECC43329
:1016EE003354C0FC900027E075F010A42459F58205
:1016FE00E5F0341DF583E5822DF582E43583F5831F
:10170E00E493C3134CF53AF52A200803021B28ED87
:10171E00901E49934223423322E553C3940840035B
:10172E00021926E5532408FC25E0FFE55325E024A5
:10173E0011FEAD0490002EE0FC7029F52BF53BF563
:10174E004BA3E075F020A42419F582E5F0341CF5C6
:10175E0083E5822FF582E43583F583E49313131327
:10176E00541F806175F020ECA42419F582E5F03445
:10177E001CF583E5822FF582E43583F583E493F53A
:10178E002BF53BF54B90002FE075F020A42419F5B6
:10179E0082E5F0341CF583E5822FF582E43583F57E
:1017AE0083E493131313541FFB75F020ECA4241938
:1017BE00F582E5F0341CF583E5822EF582E435835F
:1017CE00F583E4934BF52CF53CF54C90002FE0FCA3
:1017DE0075F020A42419F582E5F0341CF583E5821A
:1017EE002FF582E43583F583E493C43354E0FB751F
:1017FE00F020ECA42419F582E5F0341CF583E58283
:10180E002EF582E43583F583E493131313541F4BA3
:10181E00F52DF53DF54D90002AE0FC75F020A42441
:10182E0019F582E5F0341CF583E5822FF582E43557
:10183E0083F583E493FB1313543FF52EF53EF54EDB
:10184E00EBC4333354C0FB75F020ECA42419F5829D
:10185E00E5F0341CF583E5822EF582E43583F583BD
:10186E00E4931313543F4BFC90002BE0F975F020DA
:10187E00A42419F582E5F0341CF583E5822FF58258
:10188E00E43583F583E493FBC41354074CF52FF52D
:10189E003FF54FEB33333354F8FC75F020E9A424B5
:1018AE0019F582E5F0341CF583E5822EF582E435D8
:1018BE0083F583E493C41354074CF530F540F5508B
:1018CE00900025E075F010A42459F582E5F0341D42
:1018DE00F583E5822DF582E43583F583E493FC13DD
:1018EE0013543FF531F541F551ECC4333354C0FC7C
:1018FE00900027E075F010A42459F582E5F0341D10
:10190E00F583E5822DF582E43583F583E493C313E5
:10191E004CF532F542F55222E55324F8FC25E0FF52
:10192E00E55325E024F1FEAD0490002EE0FC702975
:10193E00F523F533F543A3E075F020A42419F582C1
:10194E00E5F0341CF583E5822FF582E43583F583CB
:10195E00E493131313541F806175F020ECA4241923
:10196E00F582E5F0341CF583E5822FF582E43583AC
:10197E00F583E493F523F533F54390002FE075F0EE
:10198E0020A42419F582E5F0341CF583E5822FF5A9
:10199E0082E43583F583E493131313541FFB75F020
:1019AE0020ECA42419F582E5F0341CF583E5822E93
:1019BE00F582E43583F583E4934BF524F534F54451
:1019CE0090002FE0FC75F020A42419F582E5F03488
:1019DE001CF583E5822FF582E43583F583E493C409
:1019EE003354E0FB75F020ECA42419F582E5F034B5
:1019FE001CF583E5822EF582E43583F583E493139B
:101A0E001313541F4BF525F535F54590002AE0FCD0
:101A1E0075F020A42419F582E5F0341CF583E582D7
:101A2E002FF582E43583F583E493FB1313543FF5CE
:101A3E0026F536F546EBC4333354C0FB75F020EC77
:101A4E00A42419F582E5F0341CF583E5822EF58287
:101A5E00E43583F583E4931313543F4BFC90002B32
:101A6E00E0F975F020A42419F582E5F0341CF58315
:101A7E00E5822FF582E43583F583E493FBC413549A
:101A8E00074CF527F537F547EB33333354F8FC7530
:101A9E00F020E9A42419F582E5F0341CF583E582E3
:101AAE002EF582E43583F583E493C41354074CF585
:101ABE0028F538F548900025E075F010A42459F566
:101ACE0082E5F0341DF583E5822DF582E43583F54C
:101ADE0083E493FC1313543FF529F539F549ECC40F
:101AEE00333354C0FC900027E075F010A42459F550
:101AFE0082E5F0341DF583E5822DF582E43583F51C
:101B0E0083E493C3134CF52AF53AF54A30080BEDEE
:0A1B1E00901E4993424342334223D4
:011B2800229A
:106A200090002EE0700AF543F544F54BF54C807369
:106A300090002EE0FF75F040A424C9F582E5F03403
:106A400023F58375F002E55312A12AE493F543750B
:106A5000F040EFA424CAF582E5F03423F58375F005
:106A600002E55312A12AE493F54490002EE075F05C
:106A700040A424E9F582E5F03423F58375F002E5BE
:106A80005312A12AE493F54B75F040EFA424EAF5E4
:106A900082E5F03423F58375F002E55312A12AE470
:106AA00093F54C90002FE0FF75F040A424C9F582C7
:106AB000E5F03423F58375F002E55312A12AE4933F
:106AC000F54575F040EFA424CAF582E5F03423F5CE
:106AD0008375F002E55312A12AE493F54690002F46
:106AE000E075F040A424E9F582E5F03423F58375E0
:106AF000F002E55312A12AE493F54D75F040EFA49E
:106B000024EAF582E5F03423F58375F002E55312AB
:106B1000A12AE493F54E90002AE0FF75F040A424EA
:106B2000C9F582E5F03423F58375F002E55312A12F
:106B30002AE493FE131313541FF547EEC43354E0B5
:106B4000FE75F040EFA424CAF582E5F03423F58306
:106B500075F002E55312A12AE493131313541F4E48
:106B6000F54890002AE0FF75F040A424E9F582E59D
:106B7000F03423F58375F002E55312A12AE493FE65
:106B8000131313541FF54FEEC43354E0FE75F04059
:106B9000EFA424EAF582E5F03423F58375F002E5ED
:106BA0005312A12AE493131313541F4EF55090006F
:106BB0002BE0FF75F040A424C9F582E5F03423F5FD
:106BC0008375F002E55312A12AE493FE13131354C4
:106BD0001FF549EEC43354E0FE75F040EFA424CA1B
:106BE000F582E5F03423F58375F002E55312A12A0E
:106BF000E493131313541F4EF54A90002BE0FF75D6
:106C0000F040A424E9F582E5F03423F58375F00221
:106C1000E55312A12AE493FE131313541FF551EE0A
:106C2000C43354E0FE75F040EFA424EAF582E5F0A9
:106C30003423F58375F002E55312A12AE49313136C
:106C400013541F4EF552300808E553901E499342E5
:106C500043E553C394085024E553B406047F0180F0
:106C6000027F00E553B405047E0180027E00EE4FF2
:106C7000602D300B2A433E01433F8022E553B40C84
:106C8000047F0180027F00E553B40B047E01800283
:106C90007E00EE4F6009300B0643360143378022F9
:106CA00090002EE0700AF533F534F53BF53C807327
:106CB00090002EE0FF75F040A424C9F582E5F03481
:106CC00023F58375F002E55312A12AE493F5337599
:106CD000F040EFA424CAF582E5F03423F58375F083
:106CE00002E55312A12AE493F53490002EE075F0EA
:106CF00040A424E9F582E5F03423F58375F002E53C
:106D00005312A12AE493F53B75F040EFA424EAF571
:106D100082E5F03423F58375F002E55312A12AE4ED
:106D200093F53C90002FE0FF75F040A424C9F58254
:106D3000E5F03423F58375F002E55312A12AE493BC
:106D4000F53575F040EFA424CAF582E5F03423F55B
:106D50008375F002E55312A12AE493F53690002FD3
:106D6000E075F040A424E9F582E5F03423F583755D
:106D7000F002E55312A12AE493F53D75F040EFA42B
:106D800024EAF582E5F03423F58375F002E5531229
:106D9000A12AE493F53E90002AE0FF75F040A42478
:106DA000C9F582E5F03423F58375F002E55312A1AD
:106DB0002AE493FE131313541FF537EEC43354E043
:106DC000FE75F040EFA424CAF582E5F03423F58384
:106DD00075F002E55312A12AE493131313541F4EC6
:106DE000F53890002AE0FF75F040A424E9F582E52B
:106DF000F03423F58375F002E55312A12AE493FEE3
:106E0000131313541FF53FEEC43354E0FE75F040E6
:106E1000EFA424EAF582E5F03423F58375F002E56A
:106E20005312A12AE493131313541F4EF5409000FC
:106E30002BE0FF75F040A424C9F582E5F03423F57A
:106E40008375F002E55312A12AE493FE1313135441
:106E50001FF539EEC43354E0FE75F040EFA424CAA8
:106E6000F582E5F03423F58375F002E55312A12A8B
:106E7000E493131313541F4EF53A90002BE0FF7563
:106E8000F040A424E9F582E5F03423F58375F0029F
:106E9000E55312A12AE493FE131313541FF541EE98
:106EA000C43354E0FE75F040EFA424EAF582E5F027
:106EB0003423F58375F002E55312A12AE4931313EA
:106EC00013541F4EF542300808E553901E49934273
:106ED00043E553C394085024E553B406047F01806E
:106EE000027F00E553B405047E0180027E00EE4F70
:106EF000602D300B2A434E01434F8022E553B40CE2
:106F0000047F0180027F00E553B40B047E01800200
:106F10007E00EE4F6009300B064346014347802256
:106F200090002EE0700AF523F524F52BF52C8073E4
:106F300090002EE0FF75F040A424C9F582E5F034FE
:106F400023F58375F002E55312A12AE493F5237526
:106F5000F040EFA424CAF582E5F03423F58375F000
:106F600002E55312A12AE493F52490002EE075F077
:106F700040A424E9F582E5F03423F58375F002E5B9
:106F80005312A12AE493F52B75F040EFA424EAF5FF
:106F900082E5F03423F58375F002E55312A12AE46B
:106FA00093F52C90002FE0FF75F040A424C9F582E2
:106FB000E5F03423F58375F002E55312A12AE4933A
:106FC000F52575F040EFA424CAF582E5F03423F5E9
:106FD0008375F002E55312A12AE493F52690002F61
:106FE000E075F040A424E9F582E5F03423F58375DB
:106FF000F002E55312A12AE493F52D75F040EFA4B9
:1070000024EAF582E5F03423F58375F002E55312A6
:10701000A12AE493F52E90002AE0FF75F040A42405
:10702000C9F582E5F03423F58375F002E55312A12A
:107030002AE493FE131313541FF527EEC43354E0D0
:10704000FE75F040EFA424CAF582E5F03423F58301
:1070500075F002E55312A12AE493131313541F4E43
:10706000F52890002AE0FF75F040A424E9F582E5B8
:10707000F03423F58375F002E55312A12AE493FE60
:10708000131313541FF52FEEC43354E0FE75F04074
:10709000EFA424EAF582E5F03423F58375F002E5E8
:1070A0005312A12AE493131313541F4EF53090008A
:1070B0002BE0FF75F040A424C9F582E5F03423F5F8
:1070C0008375F002E55312A12AE493FE13131354BF
:1070D0001FF529EEC43354E0FE75F040EFA424CA36
:1070E000F582E5F03423F58375F002E55312A12A09
:1070F000E493131313541F4EF52A90002BE0FF75F1
:10710000F040A424E9F582E5F03423F58375F0021C
:10711000E55312A12AE493FE131313541FF531EE25
:10712000C43354E0FE75F040EFA424EAF582E5F0A4
:107130003423F58375F002E55312A12AE493131367
:1071400013541F4EF532300808E553901E49934200
:1071500023E553C394085024E553B406047F01800B
:10716000027F00E553B405047E0180027E00EE4FED
:10717000602D300B2A433E01433F8022E553B40C7F
:10718000047F0180027F00E553B40B047E0180027E
:107190007E00EE4F6009300B0643360143378022F4
:10781B00786DE6B40700504090782AF82828730258
:10782B00783F027844027846027848027850027812
:10783B005502785A126A20801F80058018126A2020
:10784B00126CA08013126A20800B126CA08006129F
:10785B006A20126CA0126F20900025E075F00AA42C
:10786B00FF900027E02FFFE553640F6003027A2D92
:10787B00786DE660076404600302795CEFD394389B
:10788B00401F74C82F7541FF7540FF753FFF753E54
:10789B00FF753DFF753CFF753BFF90322893F5421A
:1078AB0022EFD39430401C74D02F7540FF753FFFEF
:1078BB00753EFF753DFF753CFF753BFF903228937E
:1078CB00F54122EFD39428401974D82F753FFF75DB
:1078DB003EFF753DFF753CFF753BFF90322893F5DE
:1078EB004022EFD39420401674E02F753EFF753D78
:1078FB00FF753CFF753BFF90322893F53F22EFD38A
:10790B009418401374E82F753DFF753CFF753BFFD2
:10791B0090322893F53E22EFD39410401074F02F41
:10792B00753CFF753BFF90322893F53D22EFD394C6
:10793B0008400D74F82F753BFF90322893F53C22CD
:10794B00EFC394094003027A2DEF90322893F53B55
:10795B0022EFD39438401F74C82F7551FF7550FF19
:10796B00754FFF754EFF754DFF754CFF754BFF90B7
:10797B00322893F55222EFD39430401C74D02F75DC
:10798B0050FF754FFF754EFF754DFF754CFF754BD7
:10799B00FF90322893F55122EFD39428401974D8D5
:1079AB002F754FFF754EFF754DFF754CFF754BFFD8
:1079BB0090322893F55022EFD39420401674E02F89
:1079CB00754EFF754DFF754CFF754BFF903228932D
:1079DB00F54F22EFD39418401374E82F754DFF75B4
:1079EB004CFF754BFF90322893F54E22EFD394103A
:1079FB00401074F02F754CFF754BFF90322893F5A8
:107A0B004D22EFD39408400D74F82F754BFF903235
:107A1B002893F54C22EFC394095007EF903228932B
:027A2B00F54B19
:017A2D002236
:1064C200E553C394084003026616E553240825E009
:1064D200FEE55325E02411FF90002EE0FD7006F545
:1064E2004CF54B803A75F020EDA42499F582E5F045
:1064F2003420F583E5822EF582E43583F583E49337
:10650200F54B75F020EDA42499F582E5F03420F5E1
:1065120083E5822FF582E43583F583E493F54C908D
:10652200002FE0FD75F020A42499F582E5F03420D7
:10653200F583E5822EF582E43583F583E4933333E4
:106542003354F8FC75F020EDA42499F582E5F0347B
:1065520020F583E5822FF582E43583F583E493FD0C
:10656200C41354074CF54DED33333354F8F54E90C4
:10657200002AE0FD75F020A42499F582E5F034208C
:10658200F583E5822EF582E43583F583E493FC13EB
:106592001313541FF54FECC43354E0FC75F020ED97
:1065A200A42499F582E5F03420F583E5822FF58263
:1065B200E43583F583E493131313541F4CF5509081
:1065C200002BE0FD75F020A42499F582E5F034203B
:1065D200F583E5822EF582E43583F583E493F55164
:1065E20075F020EDA42499F582E5F03420F583E5D9
:1065F200822FF582E43583F583E493F552300B1153
:10660200E553901B7193424EE553901B6193424FA9
:1066120022026768E55324F825E0FEE55325E024CD
:10662200F1FF90002EE0FD7006F544F543803A75C7
:10663200F020EDA42499F582E5F03420F583E5827B
:106642002EF582E43583F583E493F54375F020ED6E
:10665200A42499F582E5F03420F583E5822FF582B2
:10666200E43583F583E493F54490002FE0FD75F063
:1066720020A42499F582E5F03420F583E5822EF5F5
:1066820082E43583F583E49333333354F8FC75F0B5
:1066920020EDA42499F582E5F03420F583E5822FDC
:1066A200F582E43583F583E493FDC41354074CF576
:1066B20045ED33333354F8F54690002AE0FD75F08A
:1066C20020A42499F582E5F03420F583E5822EF5A5
:1066D20082E43583F583E493FC131313541FF547C7
:1066E200ECC43354E0FC75F020EDA42499F582E566
:1066F200F03420F583E5822FF582E43583F583E4D7
:1067020093131313541F4CF54890002BE0FD75F0C2
:1067120020A42499F582E5F03420F583E5822EF554
:1067220082E43583F583E493F54975F020EDA424E2
:1067320099F582E5F03420F583E5822FF582E43580
